:020000020000FC
:100000000FEF0DBF18E01EBF00E80093610003E092
:10001000009361000FE108B900E207B90FE304B9EA
:100020001CEF1AB930E040E070E090E00E9424003C
:100030000E942C0086B184FF17C0B6B1B4FF0E94A5
:1000400055000E945800F2CF06B100FF16C016B14D
:1000500011FF17C035B9089556B152FF16C066B1E9
:1000600063FF19C07BB9089500E010E00A95F1F72D
:100070001A95E1F7309AF8CFD9CF3F30B9F23395DE
:10008000F3CF303099F23A95EFCF4F3079F2439574
:100090000E945100E9CF403049F24A950E94510038
:1000A000E3CF742F770F770F0895942F931F089540
:1000B00090FD5E9A90FF5E9891FD5F9A91FF5F9828
:1000C00092FD2D9A92FF2D9893FD2C9A93FF2C98D8
:0A00D00094FD459A94FF45980895A9
:00000001FF
